:100000000C945D000C9485000C9485000C94850084
:100010000C9485000C9485000C9485000C9485004C
:100020000C9485000C9485000C9485000C9485003C
:100030000C9485000C9485000C9485000C9485002C
:100040000C9421020C9485000C9485000C9485007E
:100050000C9485000C9485000C9485000C9485000C
:100060000C946B020C948500000000080002010053
:100070000003040700000000000000000000000072
:10008000250028002B0000000000240027002A0083
:10009000040404040404040402020202020203032E
:1000A0000303030301020408102040800102040836
:1000B0001020010204081020090511241FBECFEFF3
:1000C000D8E0DEBFCDBF11E0A0E0B1E0E4E4FAE0AB
:1000D00002C005900D92A431B107D9F721E0A4E147
:1000E000B1E001C01D92A33EB207E1F710E0CDE5FB
:1000F000D0E004C02197FE010E941A05CC35D1073B
:10010000C9F70E948A030C9420050C9400000895FE
:10011000089590E0FC01E859FF4F2491FC01EC5553
:10012000FF4F3491FC01E057FF4FE491EE23C9F0FB
:10013000222339F0233001F1A8F4213019F12230C3
:1001400029F1F0E0EE0FFF1FE458FF4FA591B491A5
:100150008FB7F894EC91611126C030953E233C9303
:100160008FBF08952730A9F02830C9F0243049F70F
:10017000809180008F7D03C0809180008F77809375
:100180008000DFCF84B58F7784BDDBCF84B58F7DD2
:10019000FBCF8091B0008F778093B000D2CF809159
:1001A000B0008F7DF9CF3E2BDACF3FB7F894809126
:1001B0007D0190917E01A0917F01B091800126B5D3
:1001C000A89B05C02F3F19F00196A11DB11D3FBF8F
:1001D000BA2FA92F982F8827BC01CD01620F711D5E
:1001E000811D911D42E0660F771F881F991F4A9558
:1001F000D1F7089520915501260F3327331F21325F
:100200003105ECF42091AD01FC0190E080E0243058
:1002100069F082E00895A09155012191AC014B5CF9
:100220005E4FA40FB52FB11D2C930196861798F33E
:1002300080915501680F6093550180E0089581E039
:1002400008951092AD0181E08093AC011092870176
:1002500061E082E10E94890061E083E10E948900FF
:10026000E9EBF0E080818E7F808380818D7F8083C9
:1002700088E48093B80085E48093BC000895CF9310
:10028000DF9391E0909334018823B9F0C091B800D6
:10029000D091BA008091BC008A7B8093BC0060E062
:1002A00082E10E94890060E083E10E9489000E944F
:1002B0002101D093BA00C093B800DF91CF91089587
:1002C0000895E091860180918501E81730F4F0E00F
:1002D000EC5EFE4F808190E008958FEF9FEF0895D0
:1002E00090918601809185012FEF3FEF981748F498
:1002F000E92FF0E0EC5EFE4F208130E09F5F9093AD
:100300008601C90108958091850190918601891B1C
:10031000990B0895CF92DF92EF92FF920F931F9364
:10032000CF93DF937C01CB018A012091B30122237B
:1003300089F0EB016B01C40ED51ECC15DD0569F00B
:100340006991D701ED91FC910190F081E02DC701F9
:100350000995F3CF642F0E94FA00C801DF91CF9175
:100360001F910F91FF90EF90DF90CF900895CF9362
:10037000DF931F92CDB7DEB769832091B3012223AB
:10038000F9F02091D601203258F021E030E0FC0154
:100390003383228390E080E00F90DF91CF91089526
:1003A0008091B401E82FF0E0EB54FE4F99819083E7
:1003B0008F5F8093B4018093D60181E090E0ECCF11
:1003C00061E0CE0101960E94FA00F7CF90E080E054
:1003D000089585ED8093BC008091AF019091B001AC
:1003E000A091B101B091B2010796A11DB11D23E00A
:1003F000B695A795979587952A95D1F72091BC003A
:1004000024FD03C01092AD0108954091AF015091B9
:10041000B0016091B1017091B201452B462B472B81
:1004200069F30097A105B10541F025E32A95F1F79D
:1004300000000197A109B109E1CF8091AE010C94B0
:100440003F011F920F920FB60F9211242F933F93EB
:100450008F939F93AF93BF938091790190917A018D
:10046000A0917B01B0917C013091780123E0230FB2
:100470002D3758F50196A11DB11D20937801809369
:10048000790190937A01A0937B01B0937C018091D4
:100490007D0190917E01A0917F01B0918001019634
:1004A000A11DB11D80937D0190937E01A0937F01DA
:1004B000B0938001BF91AF919F918F913F912F9108
:1004C0000F900FBE0F901F90189526E8230F0296ED
:1004D000A11DB11DD2CF1F920F920FB60F92112402
:1004E0002F933F934F935F936F937F938F939F933C
:1004F000AF93BF93EF93FF938091B900887F8036CD
:1005000009F44AC0F0F5883209F4A7C018F5803123
:1005100009F49BC0B8F4882309F4F9C0883009F4C1
:1005200094C0FF91EF91BF91AF919F918F917F9177
:100530006F915F914F913F912F910F900FBE0F9050
:100540001F901895883109F488C0803251F7809344
:10055000AB0114C0803409F49DC040F48033B9F37A
:100560008833F9F68093AB0185ECB0C0803509F48F
:1005700085C0883509F496C0883499F60E94E9014F
:10058000D0CF883909F48CC038F5883729F050F479
:10059000883611F0803729F683E08093AD01109200
:1005A000770157C0883809F47BC0803919F080384A
:1005B00009F0B7CF80917701803208F071C0E091E7
:1005C000770181E08E0F809377018091BB00F0E08E
:1005D000E95AFE4F80833DC0803B39F0E0F4803A19
:1005E00009F479C0883A09F09CCF84E08093AD018A
:1005F0001092560110925501E0918301F09184010F
:1006000009958091550181110FC081E080935501BA
:100610001092350109C0803C09F4A6CF883C09F44A
:10062000A3CF883B09F07DCFE091560181E08E0F8A
:1006300080935601F0E0EB5CFE4F80818093BB001D
:10064000909156018091550129C080918801809335
:10065000BB0085EC8093BC0064CF9091AA0180918F
:10066000A901981758F5E091AA0181E08E0F8093B7
:10067000AA01F0E0E757FE4F8081E9CFE091AA019F
:1006800081E08E0F8093AA018091BB00F0E0E757D4
:10069000FE4F80839091AA018091A9019817C8F21A
:1006A00085E8D8CFE091AA0181E08E0F8093AA015E
:1006B0008091BB00F0E0E757FE4F80838091AC0152
:1006C00081115CCF81E08093870184EA8093BC0034
:1006D0001092AD0126CF85EC8093BC001092AD0145
:1006E00080917701803230F4E0917701F0E0E95AAF
:1006F000FE4F10826091770170E0E0918101F091EE
:10070000820187E591E00995109277010ACF109256
:10071000AB0134CF789484B5826084BD84B58160A8
:1007200084BD85B5826085BD85B5816085BD8091BC
:100730006E00816080936E00109281008091810034
:10074000826080938100809181008160809381002C
:10075000809180008160809380008091B1008460EE
:100760008093B1008091B00081608093B00080914F
:100770007A00846080937A0080917A00826080930E
:100780007A0080917A00816080937A0080917A006B
:10079000806880937A001092C10030E020E0F90177
:1007A000EC55FF4F4491F901E057FF4F84918823A6
:1007B00099F090E0880F991FFC01EA57FF4FA5912F
:1007C000B491FC01E458FF4F859194918FB7F89450
:1007D000EC91E42BEC938FBF2F5F3F4F203131051D
:1007E000F1F610928601109285010E94210187E89E
:1007F00090E0909384018093830188E890E0909347
:1008000082018093810111E006E585EED82E95ECFA
:10081000C92E20E0E22E20E0F22E32E0B32EAA24F0
:10082000AA941093B3011092B4011092D6010093D0
:10083000D5016091000187ED91E00E94B701C09160
:10084000D601C13208F08CC00E94D5002B013C01BA
:100850008091AD0181115FC0B092AD011093AC01E8
:10086000A092AB011092AA01C093A901A5EBB1E03F
:10087000E9E8F1E0C8139FC01092880180918801D7
:100880008C6A8093880180918701813009F097C03C
:10089000109287010E94D5002B013C0180918801B4
:1008A0008093BB008091AF019091B001A091B10104
:1008B000B091B201892B8A2B8B2B99F00E94D50025
:1008C0002091AF013091B0014091B1015091B2013E
:1008D00064197509860997092617370748075907C4
:1008E000D8F18091BC0083FDD9CFC092BC000E949A
:1008F000D5002B013C018091AD01823009F462C02A
:100900008091AB018F3F61F18091AB01803241F169
:100910008091AB0125C08091AF019091B001A09171
:10092000B101B091B201892B8A2B8B2B09F490CFA6
:100930000E94D5002091AF013091B0014091B101EA
:100940005091B2016419750986099709261737076E
:100950004807590708F07CCF8091AE010E943F0103
:100960001092B4011092D6011092B301809100014F
:100970009091010101968F3F910509F00CF444C05C
:100980001092010110920001D0E0C0E0209741F4E4
:1009900061E080E00E94890061E088E00E948900B7
:1009A0002196C830D10591F7E114F10409F439CF4B
:1009B0000E94000036CF9D9191938F5F5BCFD092C4
:1009C000BC0095CF8091AF019091B001A091B10191
:1009D000B091B201892B8A2B8B2B09F48CCF0E940A
:1009E000D5002091AF013091B0014091B1015091FB
:1009F000B201641975098609970926173707480750
:100A0000590708F078CFA8CF909301018093000197
:100A1000CBCFE7EDF1E01382128288EE93E0A0E005
:100A2000B0E084839583A683B78386E091E09183C9
:100A300080830895EE0FFF1F0590F491E02D099437
:040A4000F894FFCF58
:100A4400FFFF00000000B7018A01E6016001830195
:040A540070016101CB
:00000001FF
