:020000040000FA
:100000000C945D000C9485000C9485000C94850084
:100010000C9485000C9485000C9485000C9485004C
:100020000C9485000C9485000C9485000C9485003C
:100030000C9485000C9485000C9485000C9485002C
:100040000C94F3010C9485000C9485000C948500AD
:100050000C9485000C9485000C9485000C9485000C
:100060000C943D020C948500000000080002010081
:100070000003040700000000000000000000000072
:10008000250028002B0000000000240027002A0083
:10009000040404040404040402020202020203032E
:1000A0000303030301020408102040800102040836
:1000B00010200102040810200D0411241FBECFEFF0
:1000C000D8E0DEBFCDBF11E0A0E0B1E0ECE4F8E0A5
:1000D00002C005900D92A231B107D9F721E0A2E14B
:1000E000B1E001C01D92A33CB207E1F710E0CDE5FD
:1000F000D0E004C02197FE010E941E04CC35D10738
:10010000C9F70E945C030C9424040C940000089529
:10011000CF93DF93AC01E091B301F091B40130973C
:10012000F1F09091B2018091B1019817C0F090E088
:10013000292F30E02617370754F4D901AE5EBE4FA1
:10014000240F351FE90128812C939F5FF1CF109276
:10015000B2016093B101CB01DF91CF910994DF919E
:10016000CF91089590E0FC01E859FF4F2491FC01E4
:10017000EC55FF4F3491FC01E057FF4FE491EE2323
:10018000C9F0222339F0233001F1A8F4213019F10C
:10019000223029F1F0E0EE0FFF1FE458FF4FA59148
:1001A000B4918FB7F894EC91611126C030953E233D
:1001B0003C938FBF08952730A9F02830C9F0243030
:1001C00049F7809180008F7D03C0809180008F77F8
:1001D00080938000DFCF84B58F7784BDDBCF84B57B
:1001E0008F7DFBCF8091B0008F778093B000D2CF0E
:1001F0008091B0008F7DF9CF3E2BDACF209158014E
:10020000260F3327331F21323105ECF420917C0176
:10021000FC0190E080E0243069F082E00895A09134
:1002200058012191AC01485C5E4FA40FB52FB11D60
:100230002C930196861798F380915801680F60936C
:10024000580180E0089581E0089510927C0181E0DA
:1002500080937E0110927D0161E082E10E94B200F4
:1002600061E083E10E94B200E9EBF0E080818E7FE3
:10027000808380818D7F808388E48093B80085E4CB
:100280008093BC0008950895E091B2018091B1017E
:10029000E81730F4F0E0EE5EFE4F808190E00895C4
:1002A0008FEF9FEF08959091B2018091B1012FEFF0
:1002B0003FEF981748F4E92FF0E0EE5EFE4F208103
:1002C00030E09F5F9093B201C90108958091B10120
:1002D0009091B201891B990B0895CF93DF93CB01C5
:1002E000EA01642F0E94FE00CE01DF91CF910895B4
:1002F000CF93DF931F92CDB7DEB7698361E0CE0164
:1003000001960E94FE0081E090E00F90DF91CF9176
:10031000089590E080E008959091B1018091B2013C
:10032000981749F085EB91E00E9453019093C20128
:100330008093C101F1CF0895CF93DF9385ED809332
:10034000BC008091340190913501A0913601B091AB
:1003500037010796A11DB11D23E0B695A795979586
:1003600087952A95D1F72091BC0024FD03C01092F7
:100370007C0136C0409134015091350160913601C5
:1003800070913701452B462B472B69F30097A10548
:10039000B10541F025E32A95F1F700000197A10985
:1003A000B109E1CF8091330191E09093320188232C
:1003B000B9F0C091B800D091BA008091BC008A7B9E
:1003C0008093BC0060E082E10E94B20060E083E1C3
:1003D0000E94B2000E942501D093BA00C093B800D9
:1003E000DF91CF9108951F920F920FB60F921124B3
:1003F0002F933F938F939F93AF93BF938091A701C8
:100400009091A801A091A901B091AA013091A601F3
:1004100023E0230F2D3758F50196A11DB11D209320
:10042000A6018093A7019093A801A093A901B0937E
:10043000AA018091A2019091A301A091A401B09181
:10044000A5010196A11DB11D8093A2019093A30166
:10045000A093A401B093A501BF91AF919F918F91FB
:100460003F912F910F900FBE0F901F90189526E887
:10047000230F0296A11DB11DD2CF1F920F920FB66E
:100480000F9211242F933F934F935F936F937F931A
:100490008F939F93AF93BF93EF93FF938091B90096
:1004A000887F803609F44AC0F0F5883209F4A7C085
:1004B00018F5803109F49BC0B8F4882309F4F9C019
:1004C000883009F494C0FF91EF91BF91AF919F9153
:1004D0008F917F916F915F914F913F912F910F90ED
:1004E0000FBE0F901F901895883109F488C0803294
:1004F00051F780937B0114C0803409F49DC040F40F
:100500008033B9F38833F9F680937B0185ECB0C072
:10051000803509F485C0883509F496C0883499F689
:100520000E949C01D0CF883909F48CC038F58837F7
:1005300029F050F4883611F0803729F683E0809353
:100540007C0110927A0157C0883809F47BC0803949
:1005500019F0803809F0B7CF80917A01803208F025
:1005600071C0E0917A0181E08E0F80937A018091D1
:10057000BB00F0E0E65AFE4F80833DC0803B39F07F
:10058000E0F4803A09F479C0883A09F09CCF84E01D
:1005900080937C011092590110925801E091AD01B5
:1005A000F091AE0109958091580181110FC081E051
:1005B000809358011092380109C0803C09F4A6CFFD
:1005C000883C09F4A3CF883B09F07DCFE091590125
:1005D00081E08E0F80935901F0E0E85CFE4F80814E
:1005E0008093BB00909159018091580129C080915E
:1005F000A1018093BB0085EC8093BC0064CF9091F7
:10060000A00180919F01981758F5E091A00181E029
:100610008E0F8093A001F0E0E158FE4F8081E9CF7A
:10062000E091A00181E08E0F8093A0018091BB003A
:10063000F0E0E158FE4F80839091A00180919F01EE
:100640009817C8F285E8D8CFE091A00181E08E0F1D
:100650008093A0018091BB00F0E0E158FE4F8083C1
:1006600080917E0181115CCF81E080937D0184EADD
:100670008093BC0010927C0126CF85EC8093BC0057
:1006800010927C0180917A01803230F4E0917A01FD
:10069000F0E0E65AFE4F108260917A0170E0E0913E
:1006A000AB01F091AC018AE591E0099510927A01D5
:1006B0000ACF10927B0134CF789484B5826084BDD8
:1006C00084B5816084BD85B5826085BD85B5816056
:1006D00085BD80916E00816080936E0010928100D4
:1006E000809181008260809381008091810081608F
:1006F0008093810080918000816080938000809150
:10070000B10084608093B1008091B00081608093DB
:10071000B00080917A00846080937A0080917A00A2
:10072000826080937A0080917A00816080937A0061
:1007300080917A00806880937A001092C10030E046
:1007400020E0F901EC55FF4F4491F901E057FF4FCC
:100750008491882399F090E0880F991FFC01EA5753
:10076000FF4FA591B491FC01E458FF4F85919491FE
:100770008FB7F894EC91E42BEC938FBF2F5F3F4F32
:1007800020313105F1F61092B2011092B1011092B0
:10079000B0011092AF010E94250187E890E090938C
:1007A000AE018093AD0188E890E09093AC01809316
:1007B000AB018CEA8093BA008CE891E09093B4018D
:1007C0008093B30180E0C82E80E0D82EE090C10174
:1007D000F090C20101E010E0D0E0C0E02097C9F441
:1007E00061E080E00E94B200E114F10471F461E084
:1007F0008C2F885F0E94B2000830110531F4C114BB
:10080000D10421F30E940000E1CF21960F5F1F4F1A
:10081000E5CFCE15DF0581F7EACFE5EBF1E01382F6
:10082000128288EE93E0A0E0B0E084839583A683F3
:10083000B78384E091E0918380830895EE0FFF1FDA
:100840000590F491E02D0994F894FFCF000000008A
:0E08500078016D0189014301660153014401E5
:107E0000112484B714BE81FFF0D085E080938100F7
:107E100082E08093C00088E18093C10086E0809377
:107E2000C20080E18093C4008EE0C9D0259A86E02C
:107E300020E33CEF91E0309385002093840096BBD3
:107E4000B09BFECF1D9AA8958150A9F7CC24DD24C4
:107E500088248394B5E0AB2EA1E19A2EF3E0BF2EE7
:107E6000A2D0813461F49FD0082FAFD0023811F036
:107E7000013811F484E001C083E08DD089C08234E0
:107E800011F484E103C0853419F485E0A6D080C0E4
:107E9000853579F488D0E82EFF2485D0082F10E0AE
:107EA000102F00270E291F29000F111F8ED06801E7
:107EB0006FC0863521F484E090D080E0DECF843638
:107EC00009F040C070D06FD0082F6DD080E0C81688
:107ED00080E7D80618F4F601B7BEE895C0E0D1E017
:107EE00062D089930C17E1F7F0E0CF16F0E7DF06D8
:107EF00018F0F601B7BEE89568D007B600FCFDCFD4
:107F0000A601A0E0B1E02C9130E011968C91119780
:107F100090E0982F8827822B932B1296FA010C0160
:107F200087BEE89511244E5F5F4FF1E0A038BF0790
:107F300051F7F601A7BEE89507B600FCFDCF97BE46
:107F4000E89526C08437B1F42ED02DD0F82E2BD052
:107F50003CD0F601EF2C8F010F5F1F4F84911BD097
:107F6000EA94F801C1F70894C11CD11CFA94CF0C13
:107F7000D11C0EC0853739F428D08EE10CD085E9AC
:107F80000AD08FE07ACF813511F488E018D01DD067
:107F900080E101D065CF982F8091C00085FFFCCF94
:107FA0009093C60008958091C00087FFFCCF809118
:107FB000C00084FD01C0A8958091C6000895E0E648
:107FC000F0E098E1908380830895EDDF803219F02E
:107FD00088E0F5DFFFCF84E1DECF1F93182FE3DFCA
:107FE0001150E9F7F2DF1F91089580E0E8DFEE27F6
:047FF000FF270994CA
:027FFE00040479
:00000001FF
